:100000000C94D4030C94F1030C94F1030C94F103BD
:100010000C94F1030C94F1030C94F1030C94F10390
:100020000C94F1030C94F1030C941B300C94ED3000
:100030000C94312B0C94F1030C94F1030C94F10308
:100040000C94F1030C94F1030C94F1030C94F10360
:100050000C94F1030C948A2B0C94F1030C94F1038F
:100060000C94F1030C94F1030C94F1030C94F10340
:100070000C94F1030C94F1030C94F1030C94F10330
:100080000C94F1030C94F1030C94F1030C94F10320
:100090000C94F1030C94F1030C94F1030C94F10310
:1000A0000C94F1030C94F1030C94F1034D045004EF
:1000B0005304560459045C045F04C30DC30DF50DCD
:1000C000F50D4E0E6E0EA90F0E10790E140F260FA1
:1000D000260FB50FD80FBD0FC00FCB0FC50FD00F18
:1000E000CD10CD10DF10DF10D610DF10DF10DF10C5
:1000F000CD10CD10DB10DF10DF10DB107F1C751C66
:10010000821CCA1CCE1CCE1CCA1CCE1CCE1CA31C1E
:10011000CE1CAD1CB71CCE1CCE1CCE1CCE1CCA1CCB
:10012000CE1CCE1CCA1CCE1C901CCE1CCE1CC71CC8
:10013000C71CC71CC71CC71CC71CC71CC71CC71CA7
:10014000CC1CCE1C7F1C721CCE1CCE1CCE1CCE1C0C
:10015000CE1CCE1CCE1CCE1CCE1CCE1CCC1CCE1C51
:10016000CE1CCA1CCE1CC51CC51CC51CC51CC51C70
:10017000C51CC51CC51CC51CCC1C5A31813179322B
:1001800081317932CD31F031793247325632000D3A
:10019000010D020D030D040D050D000C010C020CE8
:1001A000030C040C050C000B010B020B030B040BDE
:1001B000050B000A010A020A030A040A050A0009DB
:1001C00001090209030904090509000801080208D8
:1001D00003080408050800070107020703070407CE
:1001E00005070006010602060306040605060005CB
:1001F00001050205030504050505000401040204C8
:1002000003040404050400030103020303030403BD
:1002100005030002010202020302040205020001BA
:1002200001010201030104010501000001000200B7
:100230000300040005006572676F646F785F657A7C
:100240002F54726962616C4E696768744F776C20D5
:100250004020302E31342E32392D32302D67313559
:1002600034396661005361666574792064616E6338
:10027000652100290049004C0007574E0000001E70
:1002800000140004001D004B0051001F001A6416EA
:10029000641B0029002B002000086107680600028B
:1002A000512A0021001562096219000151520022F1
:1002B0000017000A0005000000500007570657000D
:1002C00000045700004F0046000757000005570084
:1002D00000500023001C000B00110000004F002400
:1002E0000018720D7210001255520025000C710E8C
:1002F00078015702512C00260012640F6400572920
:100300000028002700130003570257010051000185
:1003100000010001000100010000002900010001AE
:100320000001000100000001003A001E0001000170
:1003300000010001003B001F6401000100010001F9
:10034000003C00206101000100010001003D00218E
:100350006201000100010001003E002200010000D6
:100360000001001050010000000100000001000128
:10037000000100000001000000010001003F002317
:100380000001000000010001004000247201000192
:100390000001000100410025710100010001000180
:1003A0000042002664010001000100010043002713
:1003B0000001000100010045004400035701000155
:1003C0000000000100010001000100010000000127
:1003D00000000029000100010001000100FB00EF06
:1003E000000100010001000100ED00EE000100012C
:1003F0000001000100FC00F000010001000100010B
:1004000000F900FA00000000000100105010500038
:10041000000000000001001050105000000100001A
:1004200000010001004B004E00FD00000001000132
:10043000004A005000F1000100010001005200518B
:1004400000F3000100010001004D004F00F2000127
:10045000000100010000000000FF00010001000198
:100460000001000100010001000000000000000088
:100470000000002A2B2800000000000000000000FF
:1004800000000000000029000000002C1E34202184
:100490002224342627252E362D3738271E1F2021CB
:1004A00022232425263333362E37381F040506072A
:1004B00008090A0B0C0D0E0F101112131415161744
:1004C00018191A1B1C1D2F3130232D350405060762
:1004D00008090A0B0C0D0E0F101112131415161724
:1004E00018191A1B1C1D2F3130354C00000000005C
:1004F00000000000000000000000000000000000FC
:100500000000000000000000000000000000007E6D
:100510000F00D4FFFFFFC7000000787F3F1F0001DE
:1005200001010101010101010202020202020202B3
:100530000203030303030303030404040404040485
:100540000505050505060606060607070707070849
:10055000080808090909090A0A0A0B0B0B0C0C0CFC
:100560000D0D0D0E0E0E0F0F0F1010111111121296
:1005700013131414151516161717181819191A1A13
:100580001B1B1C1D1D1E1E1F202021222223242474
:10059000252626272829292A2B2C2D2D2E2F3031B0
:1005A0003232333435363738393A3B3C3D3E3F40C2
:1005B0004142434445464748494A4C4D4E4F5051AD
:1005C0005354555658595A5B5D5E5F616264656667
:1005D00068696B6C6D6F7072737577787A7B7D7EEE
:1005E0008082838587888A8C8E8F91939596989A3E
:1005F0009C9EA0A2A3A5A7A9ABADAFB1B3B5B7BA56
:10060000BCBEC0C2C4C6C9CBCDCFD1D4D6D8DBDD29
:10061000DFE2E4E7E9EBEEF0F3F5F8FAFDFF1603AD
:100620004500720067006F0044006F0078002000F2
:1006300045005A00000028035A00530041002000E2
:1006400054006500630068006E006F006C006F006E
:100650006700790020004C00610062007300000018
:100660000403090409023B00020100A0FA09040086
:1006700000010301010009211101000122400007CE
:1006800005810308000A09040100010300000009B4
:10069000211101000122B6000705820320000A1281
:1006A00001000200000008973274490100010200B5
:1006B0000105010902A10185020901A1000509192D
:1006C0000129081500250195087501810205010918
:1006D0003009311581257F95027508810609381585
:1006E00081257F950175088106050C0A3802158160
:1006F000257F950175088106C0C005010980A1010B
:10070000850319012AB700150126B7009501751058
:100710008100C0050C0901A101850419012AA0026C
:10072000150126A002950175108100C0050109067A
:10073000A1018505050719E029E7150025019508A0
:10074000750181020507190029EF1500250195F0B3
:1007500075018102050819012905950575019102A8
:10076000950175039101C005010906A1010507194D
:10077000E029E715002501950875018102950175AD
:100780000881010507190029FF150026FF009506BD
:100790007508810005081901290595057501910263
:1007A000950175039101C00011241FBECFEFDAE05F
:1007B000DEBFCDBF12E0A0E0B1E0E4E6F6E602C0A5
:1007C00005900D92A837B107D9F724E0A8E7B2E069
:1007D00001C01D92A731B207E1F70E94C41B0C941F
:1007E00030330C9400008098889A8198899A849874
:1007F0008C9A85988D9A86988E9A87988F9A089564
:10080000209828982198299822982A9823982B98FC
:1008100052985A9853985B983E9846980895CF936B
:10082000E82F873080F58091000190910101892B9C
:1008300009F047C0CE2F64E670E080E40E94D9281A
:100840009093010180930001892BD1F464E670E05C
:1008500082E10E945A299093010180930001892B23
:1008600079F481E090E001C0880FCA95EAF764E668
:1008700070E080950E945A299093010180930001B5
:10088000CF910C94AF2990E0FC013797E730F10548
:10089000C0F4EA5AFF4F0C94D532209A289811C020
:1008A000219A29980EC0229A2A980BC0239A2B9835
:1008B00008C0529A5A9805C0539A5B9802C03E9A53
:1008C0004698CF910895CF93873040F580910001ED
:1008D00090910101892B59F564E670E081E40E9452
:1008E000D9289093010180930001892B11F0C0E079
:1008F00011C084E690E00E948A2997FF05C090937A
:10090000010180930001F3CFC82FC095109201011F
:10091000109200010E94AF298C2F0AC09FB18FB1A5
:10092000807F869586959370892B809501C080E0A5
:10093000CF9108950E94D80590E090930101809393
:1009400000010E9400040C94F303EF92FF920F93B6
:100950001F93CF93DF938091000190910101892B28
:1009600091F080917A028F5F80937A0281110BC09F
:100970000E94D80590E09093010180930001892B9B
:1009800011F40E944A0503EA13E0C0E0F12C87E06D
:10099000E82EEC0E8C2F0E940F048E2D0E940F0467
:1009A0008C2F0E946304F8019081891719F08083CD
:1009B000D1E001C0D0E08E2D0E946304F801978140
:1009C000891719F0878381E001C080E0D82BFD2AC8
:1009D0000E940004CF5F0F5F1F4FC730C1F68F2DFD
:1009E000DF91CF911F910F91FF90EF9008950E949A
:1009F000D80590E090930101809300010E940004CB
:100A00000E94F303E1EBF3E0119283E0EF3BF80780
:100A1000D9F70895CF92DF92EF92FF920F931F9331
:100A2000CF93DF936C01062F0E94D32864E670E019
:100A300084E80E94D928CC2DDD2DE12CF12C10E08A
:100A4000E016F106CCF464E670E088810E945A2931
:100A500064E670E089810E945A2964E670E08A8128
:100A60000E945A2964E670E08B810E945A298FEF18
:100A7000E81AF80A2496E4CF0E94AF29B801C6010B
:100A8000DF91CF911F910F91FF90EF90DF90CF906A
:100A90000C94372456985E9825982D9826982E9871
:100AA00027982F988FEF90E090938900809388008B
:100AB00090938B0080938A0090938D0080938C009C
:100AC000259A2D9A2FEF80E792E0215080409040A8
:100AD000E1F700C00000269A2E9A2FEF80E792E0FF
:100AE000215080409040E1F700C00000279A2F9AE3
:100AF0002FEF80E792E0215080409040E1F700C066
:100B0000000025982D982FEF80E792E0215080403B
:100B10009040E1F700C0000026982E982FEF80E764
:100B200092E0215080409040E1F700C000002798FB
:100B30002F9856985E9825982D9826982E98279845
:100B40002F98089589EA8093800089E0809381003E
:100B500024982C983F988AB18F7C8AB96E98479ACE
:100B60008BB180638BB9769A0E94C11760939D0305
:100B700070939E0380939F039093A00367708FEF01
:100B8000689FB001112475956795759567957727CE
:100B9000709389006093880070938B0060938A0043
:100BA00070938D0060938C000E944A050C94671B23
:100BB00080E290E0909301018093000180917B029C
:100BC00081110EC00E94D32881E080937B022FEF19
:100BD00083ED90E3215080409040E1F700C0000099
:100BE00064E670E080E40E94D9289093010180932C
:100BF0000001892B09F04EC064E670E080E00E949D
:100C00005A299093010180930001892B09F042C079
:100C100064E670E080E00E945A299093010180937D
:100C20000001892BB9F564E670E08FE30E945A2930
:100C30009093010180930001892B61F50E94AF29F7
:100C400064E670E080E40E94D928909301018093CB
:100C50000001892BF9F464E670E08CE00E945A29C7
:100C60009093010180930001892BA1F464E670E068
:100C700080E00E945A299093010180930001892B02
:100C800049F464E670E08FE30E945A2990930101D1
:100C9000809300010E94AF29809100010895109275
:100CA0009D0310929E0310929F031092A00384E074
:100CB000806180939D0360919D0370919E0380915C
:100CC0009F039091A0030E94C5170C94D117FC01BB
:100CD0008081813011F487E304C085EE0E94400CCE
:100CE00083E30C94400CFC018081813011F486E395
:100CF00001C083E30C94400CFC018081813011F42D
:100D000087E304C085EE0E94EF0C83E30C94EF0CA4
:100D1000FC018081813011F486E301C083E30C94EF
:100D2000EF0C8091F2019091F3018330910581F0F5
:100D30004CF48130910589F0029791F481EE0E9484
:100D4000EF0C06C08430910529F0059731F008C0FA
:100D500081E304C080E00E94EF0C88E30E94EF0C66
:100D60001092F3011092F20108958091EF01909199
:100D7000F0018330910571F03CF48130910591F0E0
:100D8000029799F481EE0CC08430910529F0059703
:100D900049F00BC08EE207C081EE0E94EF0C85E3A4
:100DA0000E94EF0C8DE20E94EF0C1092F001109265
:100DB000EF0108958091EC019091ED018330910550
:100DC000C9F034F481309105F9F00297B1F022C0F6
:100DD00084309105A1F00597E9F481EE0E94EF0CB3
:100DE00086E20E94EF0C81EE0E94EF0C86E20E94E8
:100DF000EF0C0AC081EE0E94EF0C8FE209C081EE79
:100E00000E94EF0C86E304C081EE0E94EF0C86E2A4
:100E10000E94EF0C1092ED011092EC010895809168
:100E2000E9019091EA0183309105C9F034F48130F1
:100E30009105F9F00297B1F022C084309105A1F03C
:100E40000597E9F481EE0E94EF0C87E20E94EF0C17
:100E500081EE0E94EF0C87E20E94EF0C0AC081EE47
:100E60000E94EF0C80E309C081EE0E94EF0C87E343
:100E700004C081EE0E94EF0C87E20E94EF0C1092FA
:100E8000EA011092E90108958091E6019091E7014D
:100E90008330910589F034F481309105B1F00297E7
:100EA00081F016C08430910549F0059789F484E3F8
:100EB0000E94EF0C84E307C081EE05C081EE0E9422
:100EC000EF0C85E303C00E94EF0C84E30E94EF0C5B
:100ED0001092E7011092E60108958091E30190914C
:100EE000E40183309105A1F03CF48130910559F083
:100EF0000297B1F48FE212C08430910571F005972A
:100F000079F480E00BC080EE0E94EF0C85E006C013
:100F100080EE0E94EF0C8AE101C080E30E94EF0C9A
:100F20001092E4011092E3010895CF93DF93FC0146
:100F30002081243050F0EC0185E692E00E94590BAC
:100F4000CE01DF91CF910C949027DF91CF9108953E
:100F5000FC018081813049F48185811111C0828535
:100F6000882371F082E090E00895823061F48185F9
:100F700081110CC0828581110CC083E090E008953E
:100F800081E090E0089586E090E0089585E090E0AB
:100F9000089584E090E008950E94A8079093F301DB
:100FA0008093F2018330910581F034F48130910512
:100FB000B1F0029739F008958430910541F005971A
:100FC00041F0089581EE0E94400C81E309C080E069
:100FD00007C088E30E94400C88E30E94EF0C88E37E
:100FE0000C94400C0E94A8079093F0018093EF01AD
:100FF0008330910589F034F481309105D1F0029766
:1010000039F008958430910549F0059761F008950D
:1010100081EE0E94400C0DC08EE20CC081EE0E9459
:10102000400C85E307C08DE20E94400C8DE20E94D7
:10103000EF0C8DE20C94400C0E94A8079093ED01F8
:101040008093EC018330910569F034F4813091058F
:10105000F9F0029751F008958430910541F0059719
:1010600059F0089581EE0E94400C8FE215C081EE88
:101070000E94400C86E310C081EE0E94400C86E284
:101080000E94400C81EE0E94400C86E20E94EF0C10
:1010900081EE0E94400C86E20C94400C0E94A8074E
:1010A0009093EA018093E9018330910569F034F46B
:1010B00081309105F9F0029751F00895843091053F
:1010C00041F0059759F0089581EE0E94400C80E3AD
:1010D00015C081EE0E94400C87E310C081EE0E9493
:1010E000400C87E20E94400C81EE0E94400C87E297
:1010F0000E94EF0C81EE0E94400C87E20C94400CA1
:101100000E94A8079093E7018093E6018330910540
:1011100069F034F481309105C1F0029771F00895BF
:101120008430910539F0059751F0089581EE0E94C1
:10113000400C0BC081EE0E94400C85E307C084E3A5
:101140000E94400C84E30E94EF0C84E30C94400C5A
:101150000E94A8079093E4018093E30183309105F6
:1011600001F134F48130910549F0029761F008955E
:1011700084309105D9F0059739F1089580EE0E94E9
:10118000400C85E022C080EE0E94400C85E00E9469
:10119000400C80EE0E94EF0C85E00E94EF0C8FE285
:1011A00014C080EE0E94400C8AE10FC080EE0E94C5
:1011B000400C85E00E94400C80EE0E94EF0C85E020
:1011C0000E94EF0C80E301C080E00C94400CFB0116
:1011D00084362DE5920781F085362DE5920791F052
:1011E0008897C9F482818823B1F0259A2D9A269A8E
:1011F0002E9A279A2F9A08958281882369F00E9457
:10120000351807C08281882339F086E392E00E9476
:10121000590B80E0089581E008950E94332340E057
:1012200060E080E00E94D32180E00C94FD22CF9307
:10123000DF930E949B16D82F0E94C716C82F0E94CA
:10124000B82956985E9825982D9826982E98279814
:101250002F989D2F9C2B292F227211F481FF02C001
:10126000259A2D9A892F817111F0269A2E9A892F0D
:10127000887821F0269A2E9A279A2F9A947411F042
:10128000279A2F9ADF91CF9108959C013A952115C5
:101290003F4130F5BC0166277270AC0144275470A1
:1012A0009C012227387094FF0FC090FF02C080E19C
:1012B00001C080E0672B09F08062452B09F0806453
:1012C000232B79F080680895892F8170672B09F0AE
:1012D0008260452B09F08460232B19F08860089503
:1012E00080E00895CF93DF93EC01805E9109089729
:1012F00010F0209731F4CE010E9445090E94770D2D
:1013000005C0CE010E9445090E9493108C2FDF91E9
:10131000CF910C94400CCF93DF93EC010E94EF0C23
:10132000CE01805E9109089710F0209739F4CE0124
:101330000E944509DF91CF910C947E0DCE010E9451
:101340004509DF91CF910C949A10CF93DF93EC0174
:101350000E947209CE01DF91CF910C948B0981E03C
:1013600008950C94E70808950C94B3091F93CF9344
:10137000DF9300D000D01F92CDB7DEB749835A83E8
:101380006B8330918A0289819A81311114C066235E
:1013900059F0222349F00E947312182F682F898177
:1013A0009A810E941A1203C00E944612182F698166
:1013B0007A81812F04C00E94731269817A810F9013
:1013C0000F900F900F900F90DF91CF911F910C9481
:1013D000301AFC01262F4081518162817381848102
:1013E0000C94B60981E00895CF93DF93EC0160E09F
:1013F0000E94E909BE01DF91CF910C94B4090E94CB
:10140000391B0E946D0B0E9476240C94A2050E9449
:101410007F280C94651B08950E94BB100E940B0A44
:101420002FEF84E39CE0215080409040E1F700C022
:1014300000000C94B02B0F931F93CF93DF938C017C
:1014400061E00E94E909EC01B8010E94D727B801C8
:10145000CE010E94B109882309F452C0B801CE011F
:101460000E942228882309F44BC0B801CE010E94B3
:10147000FE24882309F444C0B801CE010E948F25C0
:101480008823F1F1B801CE010E94E1258823C1F142
:10149000B801CE010E941327882391F1B801CE0133
:1014A0000E94A523882361F1F8018281882309F134
:1014B000CB358DE5D807C1F050F4C115FCE5DF0749
:1014C00081F0CF3DDC45A9F40E94351819C0CC3518
:1014D000EDE5DE0761F0CD35DD4559F40E948C164F
:1014E00008C00E940C0A0CC00E94951602C00E94FF
:1014F0009816C801DF91CF911F910F910C94AF09FD
:1015000080E0DF91CF911F910F910895DF92EF92CC
:10151000FF920F931F93CF93DF93E82FF0E0E559ED
:10152000FB4FD490282F26952695269530E0F9017B
:10153000E55FFA4F0491877010E0082E02C0159500
:1015400007950A94E2F701701127F901E550FB4F66
:10155000E490F12C082E02C0F594E7940A94E2F787
:1015600091E0E922FF24F901E551FB4FC491D0E05D
:1015700002C0D595C7958A95E2F7C170DD270115A0
:10158000110519F081EE0E94400CE114F10419F0EC
:1015900086EE0E94400C8D2D0E946E0DEF2819F0F2
:1015A00086EE0E94EF0C012B19F081EE0E94EF0CE9
:1015B000CD2B51F08CE2DF91CF911F910F91FF90D5
:1015C000EF90DF900C946E0DDF91CF911F910F91F2
:1015D000FF90EF90DF900895EF92FF920F931F938B
:1015E000CF93DF938C01F62E8AE0E82EF8018491E8
:1015F000882309F457C0813009F042C0E8012196E0
:10160000FE018491813031F42196FE0184910E9483
:101610006E0D39C0823039F4E8012296FE018491C2
:101620000E94400C30C0833039F4E8012296FE015C
:1016300084910E94EF0C27C0843029F5E80122969E
:10164000FE01249180E090E030E0205331092A30FF
:10165000310560F4E89EA001E99E500D1124C901F6
:10166000840F951F2196FE012491EECF009759F02B
:10167000EFE9FFE03197F1F700C000000197F6CFE6
:101680000E94860AE8018E010F5F1F4F8F2D88236D
:1016900009F4ACCFEFE9FFE03197F1F700C00000AB
:1016A0008150F5CFDF91CF911F910F91FF90EF9077
:1016B000089560E00C94EC0A982F9F709A50963031
:1016C00010F0805D01C0895A0C94860A08950C942C
:1016D000660B81E008950C94690B0895CF93C82F91
:1016E0000E94670B8C2F0E946B0BCF910895DC0139
:1016F00011962C9111978C91482F50E061E070E089
:1017000001C0660F8A95EAF712968C91129730E025
:10171000882319F080918C0205C0F901E458FD4F2F
:10172000808186238823E1F086E0829FF001839FF9
:10173000F00D11244E0F5F1F440F551FFA01E157A2
:10174000FE4FE4911196EC931197FA01E257FE4F88
:10175000E491EC93F901E458FD4F8081682B06C0B9
:10176000F901E458FD4F60958081682360830895F6
:101770000F931F93CF93DF93CDB7DEB72B970FB6A1
:10178000F894DEBF0FBECDBF4F83588769877A8735
:101790008B8761110E94C1169F8188852A853B85B0
:1017A000232B31F08F3F31F481E09F3F19F403C0C8
:1017B00081E001C080E080FD04C0CE0107960E9458
:1017C000770B8E010F5F1F4F86E0F80111928A950B
:1017D000E9F785E0FE013796D80101900D928A95D0
:1017E000E1F70E940E16882319F082E00E946D171F
:1017F0000E94F51581110E94E7160E94241681119E
:101800000E944E1699818A812C813D81232B31F0D3
:101810008F3F31F481E09F3F19F403C081E001C0A4
:1018200080E080FF09C049815A816B817C818D8174
:101830009E810E94441505C0C8010E94F2098111D1
:10184000F2CF2B960FB6F894DEBF0FBECDBFDF915F
:10185000CF911F910F910895FC01808191810E9489
:10186000B51292959F70963051F4863F41F0809169
:101870008C0291E0892780938C0290938B020895CB
:10188000CF93882309F4A9C0C82F8238C1F40E94DD
:10189000B82981FDA2C069E38091F4019091F5011E
:1018A0000E94B12A0E94F5162FEF81EE94E021509C
:1018B00080409040E1F700C0000069E319C0833820
:1018C00001F50E94B82980FD88C063E58091F4018C
:1018D0009091F5010E94B12A0E94F5162FEF81EE3A
:1018E00094E0215080409040E1F700C0000063E5A3
:1018F0008091F4019091F5010E94BC2ACF910C9443
:10190000F5168438C1F40E94B82982FD66C067E4E8
:101910008091F4019091F5010E94B12A0E94F51680
:101920002FEF81EE94E0215080409040E1F700C01D
:10193000000067E4DDCF8CEF8C0F813AF8F48C2F38
:101940000E94D41C811149C06C2F8091F4019091A8
:10195000F5010E94312A882349F06C2F8091F4010F
:101960009091F5010E94BC2A0E94F5166C2F80917F
:10197000F4019091F5010E94B12AC0CF80E28C0F52
:10198000883048F4C77081E001C0880FCA95EAF733
:101990000E949E16B3CFEBE5EC0FE33040F4F0E08D
:1019A000E15CFD4F808190E0CF910C94EF29E8E558
:1019B000EC0FE73150F4F0E0EE0FFF1FEF5EFD4F4C
:1019C00080819181CF910C94052ACD3E30F08C2FEF
:1019D0000E94A91DCF910C947B1ECF91089588235E
:1019E00009F464C0823879F40E94B82981FF5EC08E
:1019F00069E38091F4019091F5010E94B12A0E945F
:101A0000F51669E310C08338B1F40E94B82980FF4D
:101A10004DC063E58091F4019091F5010E94B12AD7
:101A20000E94F51663E58091F4019091F5010E9402
:101A3000BC2A0C94F516843879F40E94B82982FFE8
:101A400035C067E48091F4019091F5010E94B12ABC
:101A50000E94F51667E4E7CF9CEF980F913A10F4D7
:101A6000682FE1CF90E2980F983050F4877091E0A2
:101A700001C0990F8A95EAF7892F0E94A416D9CF41
:101A80009BE5980F933020F480E090E00C94EF29D0
:101A900098E5980F973120F480E090E00C94052AA7
:101AA0008D3E20F00E94041E0C947B1E08951F930F
:101AB000CF93DF93182FEB010E94400C209741F049
:101AC0008FE99FE00197F1F700C000002197F6CF62
:101AD000812FDF91CF911F910C94EF0C893319F076
:101AE00060E070E002C060E570E00C94570D882360
:101AF00021F00E949E160C94F5160895882321F07B
:101B00000E94A4160C94F51608958F929F92AF929E
:101B1000BF92CF92DF92EF92FF920F931F93CF93DA
:101B2000DF936C01EB01FC011281058102950F70BE
:101B30000E9473168823B9F01123A9F08D2F807F9E
:101B4000803441F090E29C0F983068F0803611F4B8
:101B5000C63F49F082E00E946D170E94731691E023
:101B6000E82EE92601C0E12CBD2EB2949FE0B922F7
:101B70008B2D90E08C30910508F050C2FC01E35AA7
:101B8000FF4F0C94D5320D2F0F708D2F807F11F0E9
:101B90000295007F112399F0002309F4BBC180E274
:101BA0008C0F883010F0C11104C0802F0E949E1647
:101BB00003C0802F0E94B4160E94F516ABC18C2F73
:101BC0000E94EF0C002309F429C280E28C0F8830B8
:101BD00010F0C11104C0802F0E94A41603C0802FF2
:101BE0000E94BA160E94F51619C29D2F9F708D2F64
:101BF000807FF92E803219F0F29480EFF822CC2306
:101C000019F0C13069F138C01123B1F0002381F01F
:101C1000013031F40E94C7168F290E94CF16FEC1F1
:101C2000023031F40E94E7168F2D0E9433171DC039
:101C30000E94C7168F291AC0002349F0013069F4A9
:101C40000E949B168F2109F4E9C10E943C170E9453
:101C5000E7168F2D0E947E0DE1C10230C1F7DEC173
:101C6000112339F0023008F0D9C18F2D0E94770D71
:101C7000D5C10111D3C1EDCF112319F00023A9F370
:101C800049C1002331F3C93309F05AC1FFEF27EEF0
:101C900083E0F15020408040E1F750C18D2F8695C0
:101CA0008695837019F0813069F0B8C1112329F04D
:101CB000CE0193700E94EF29B9C180E090E00E94AC
:101CC000EF29BDC1112329F0CE0193700E94052A8E
:101CD000ADC180E090E00E94052AB1C18C2F112394
:101CE00019F00E94A91D02C00E94041E0E947B1EC2
:101CF0009DC18D2F837009F048C0111193C12C2F05
:101D0000229526952770220F220F6C2F6F70862F39
:101D100090E0A0E0B0E0022E04C0880F991FAA1F37
:101D2000BB1F0A94D2F7C4FF10C04FE050E060E040
:101D300070E004C0440F551F661F771F2A95D2F725
:101D4000409550956095709503C040E050E0BA0111
:101D50002D2F2695269523704A015B01882A992A02
:101D6000AA2ABB2AC501B401223049F058F4213017
:101D700019F00E94301156C10E941E1153C10E94D9
:101D8000421150C10E941C114DC1112319F08D2F19
:101D9000817001C08695882309F444C12C2F2295B7
:101DA00026952770220F220F6C2F6F70862F90E0E0
:101DB000A0E0B0E0022E04C0880F991FAA1FBB1F2D
:101DC0000A94D2F7C4FF10C04FE050E060E070E02A
:101DD00004C0440F551F661F771F2A95D2F7409500
:101DE00050956095709503C040E050E0BA012D2FEA
:101DF0002695269523704A015B01882A992AAA2AEA
:101E0000BB2AC501B401223049F058F4213019F041
:101E10000E94F51107C10E94E31104C10E9407123C
:101E200001C10E945611FEC00D2F0F70112339F011
:101E3000802F0E947C118C2F0E94770DF3C08C2F75
:101E40000E947E0D802F0E949D11ECC0C23FF1F0D8
:101E500028F4C03F41F0C13F99F058C0C33FE1F0C2
:101E6000C43F21F153C0112319F00111D7C003C0A1
:101E7000023008F0D3C08D2F8F710E94C211CEC0E6
:101E80008D2F8F71112309F461C04AC08D2F8F717E
:101E9000112309F445C05AC0112329F08D2F8F71E9
:101EA0000E946711BBC00E946211B8C01123D1F01B
:101EB0000E94F2150E94A4160E940A16843039F47A
:101EC0000E9464178D2F8F710E949D11A6C0023051
:101ED00008F0A3C00D2F0F71802F0E947C1163E0CA
:101EE000802F0DC00E94F2150E949E16023050F005
:101EF0000E9464170E943C1764E08D2F8F710E942E
:101F000048178BC081E00E946D1787C0112359F0DC
:101F1000002321F08C2F0E94400C80C08D2F8F71E8
:101F20000E947C117BC0002379F0C93349F42FEF64
:101F300087EE93E0215080409040E1F700C0000020
:101F40008C2F0E94EF0C6AC08D2F8F710E949D1103
:101F500065C08C2F90E0FC01E05FF109E730F105EE
:101F600098F5E759FF4F0C94D532112309F467C057
:101F700090918C0281E0892705C010938C0256C095
:101F800081E0812780938C0251C011114FC081E004
:101F900080938C0254C0111149C010928C024FC022
:101FA000112319F00E94371641C00E94571647C0EE
:101FB000112339F080918B028823D1F210928B0289
:101FC00035C00023A9F23BC080918B020023C1F0F1
:101FD000882341F090918C0281E0892780938C02C4
:101FE00010928B028C2F112319F00E94400C1EC0FE
:101FF0000E94EF0C86E0F60111928A95E9F71FC066
:102000008823A1F0111112C090918C0281E08927E0
:1020100080938C0210928B0212C0E12C88EF8B0D02
:10202000843020F40E94B8290E946E0B112339F0ED
:10203000D07FD03611F4C63F11F00E946516EE2015
:10204000E9F00E940A1680FD19C0F60112820E9472
:1020500004160E947C11C6010E9463100E9404169F
:10206000DF91CF911F910F91FF90EF90DF90CF9074
:10207000BF90AF909F908F900C949D11DF91CF9166
:102080001F910F91FF90EF90DF90CF90BF90AF9096
:102090009F908F9008950F931F93CF93DF93EC0140
:1020A000688179818A810E94C0128C010E94191274
:1020B0000E940A11B801CE010E94850DDF91CF91D7
:1020C0001F910F910895CF93DF93EC01988189813F
:1020D0002B813C81232B31F08F3F31F481E09F3FF6
:1020E00019F403C081E001C080E080FD19C0CE0179
:1020F0000E941B0A81110CC00E947316882381F074
:102100008A81882369F082E0DF91CF910C946D176A
:10211000CE010E944B10CE01DF91CF910C94F409B7
:10212000DF91CF910895882321F00E94B4160C947A
:10213000F5160895882321F00E94BA160C94F5161E
:10214000089580E090E00E94EF2980E090E00E94F6
:10215000052A0E94C1160E94C4160E94F5160E940C
:10216000AC1F0C947B1E8091F4019091F5010E94AC
:10217000C72A0C94A1100E94AE160C94B310E92F3C
:10218000E295EF704E2F50E0FA013297EE30F105F4
:10219000B0F4E059FF4F0C94D532803F91F018F421
:1021A000883E68F40EC0843F51F40BC0883E48F06E
:1021B000813F29F406C093FB882780F9089580E0C9
:1021C000089581E00895FC01808191810E94B512FB
:1021D0000E94BF100895CF93DF9300D000D01F92CC
:1021E000CDB7DEB70F900F900F900F900F90DF914B
:1021F000CF910895CF93DF9300D000D000D0CDB71A
:10220000DEB726960FB6F894DEBF0FBECDBFDF91C6
:10221000CF910895089508950C940B110C940C110E
:102220000E940E116093C8027093C9028093CA0283
:102230009093CB020C94A1100C9410110F931F9348
:102240000091C8021091C9022091CA023091CB02BC
:10225000602B712B822B932B1F910F910C941011DB
:102260000F931F930091C8021091C9022091CA02D6
:102270003091CB0260237123822393231F910F910E
:102280000C9410110F931F930091C8021091C90272
:102290002091CA023091CB026027712782279327B1
:1022A0001F910F910C9410110C940B110E9454115A
:1022B0006093C4027093C5028093C6029093C702D4
:1022C0000C94A11060E070E0CB010C9456110F93B8
:1022D0001F9341E050E060E070E08A019B0104C080
:1022E000000F111F221F331F8A95D2F7C901B801B1
:1022F0001F910F910C9456110F931F9341E050E0E2
:1023000060E070E004C0440F551F661F771F8A9578
:10231000D2F78091C4029091C502A091C602B091FB
:10232000C7028A019B01082B192B2A2B3B2BC901C1
:10233000B8011F910F910C9456110F931F9341E018
:1023400050E060E070E004C0440F551F661F771F27
:102350008A95D2F740955095609570958091C4020A
:102360009091C502A091C602B091C7028A019B015B
:10237000082319232A233B23C901B8011F910F9178
:102380000C9456110F931F9341E050E060E070E011
:1023900004C0440F551F661F771F8A95D2F780919E
:1023A000C4029091C502A091C602B091C7028A01F1
:1023B0009B01082719272A273B27C901B8011F912C
:1023C0000F910C9456110F931F930091C40210911A
:1023D000C5022091C6023091C702602B712B822B5F
:1023E000932B1F910F910C9456110F931F930091F3
:1023F000C4021091C5022091C6023091C702602329
:102400007123822393231F910F910C9456110F93E4
:102410001F930091C4021091C5022091C602309111
:10242000C70260277127822793271F910F910C9471
:1024300056110895292F220F920F990F890FE82F17
:10244000E695E695E695877051E001C0550F8A95AF
:10245000EAF785E0E89FF0011124E357FD4F20E003
:1024600030E070E04081CB01022E02C09695879546
:102470000A94E2F7817081958427852384278193CC
:102480002F5F3F4F2530310569F70895292F220F1F
:10249000920F990F890F682F669566956695982F0C
:1024A000977085E0689FB001112440E050E080E023
:1024B000FB01E40FF51FE357FD4F208130E0092EAB
:1024C00002C0369527950A94E2F721703327042E2F
:1024D00001C0220F0A94EAF7822B4F5F5F4F45300D
:1024E000510531F70895BF92CF92DF92EF92FF929C
:1024F0000F931F93CF93DF938C01C090C402D090B1
:10250000C502E090C602F090C7028091C802909187
:10251000C902A091CA02B091CB02C82AD92AEA2ADC
:10252000FB2ACFE1D0E0D701C6010C2E04C0B6953E
:10253000A795979587950A94D2F780FD04C02197B7
:1025400090F7B12C07C0BC2EB8018C2F0E94431A03
:102550000197A9F38B2DDF91CF911F910F91FF90E0
:10256000EF90DF90CF90BF900895CF93DF93EC0171
:102570000E947312BE010E94431ADF91CF91089509
:102580001F93CF93DF93EB0190918A02992321F05F
:10259000CB010E94B51213C0882349F0CB010E94E1
:1025A0007312182F682FCE010E941A1204C0CB019B
:1025B0000E944612182FBE01812F0E94431ADF91FC
:1025C000CF911F9108951F93CF93DF93C091CC02B9
:1025D00016E08091CD02C81799F0D0E01C9FF00161
:1025E0001D9FF00D1124E253FD4F40815181628106
:1025F0007381848195810E94FA102196C770E9CF7A
:10260000DF91CF911F9108954091FE025091FF02FA
:102610006091000370910103809102039091030384
:102620000C94FA100F931F93CF93DF9380910303C1
:1026300082958F7009F05DC080910003882309F4B2
:1026400058C08091CC021091CD026091FE02709131
:10265000FF02C0910103D091020391E06F3F09F0A6
:1026600090E0292F06E0811709F443C0209721F05C
:102670007F3F21F030E003C031E001C0322F90E015
:1026800030FD34C0089FF001099FF00D1124DF01D7
:10269000A253BD4F11963C911197371327C03C911F
:1026A000361324C012963C91129731111FC0139615
:1026B0004D915C9114974C1B5D0B483C5105B0F457
:1026C000809103038F70806180930303ED52FD4F6F
:1026D00080818F70806180838EEF92E00E94631012
:1026E000DF91CF911F910F910C94E31201968770A7
:1026F000BACFDF91CF911F910F9108959F92AF9222
:10270000BF92CF92DF92EF92FF920F931F93CF93DE
:10271000DF93CDB7DEB761970FB6F894DEBF0FBE7B
:10272000CDBF8C0185E0F801DE011D9601900D9270
:102730008A95E1F7F801E2809091FE026091FF0234
:1027400020910103309102032115310531F06F3FD3
:1027500031F481E09F3F19F403C081E001C080E0C3
:10276000F82FF1709F2E80FD3FC1F801408151810B
:10277000A380B4808EEFC82E82E0D82EF0900003A4
:10278000F501E21BF30BFF2009F4D9C0809103038C
:10279000E83CF10508F095C0282F207F09F052C0D1
:1027A000561313C0491311C0FE2CE1100EC08F70D8
:1027B0008061809303030E940413C6010E9463108A
:1027C00080910303F80185834CC1AB2831F05F3F52
:1027D00031F481E04F3F19F403C081E001C080E093
:1027E00080FD03C081E08E2502C080E090E0F82FDC
:1027F000F170FF2E80FF1CC08091CC022091CD0291
:1028000036E0821709F40BC190E0389FF001399F40
:10281000F00D1124E253FD4F6181561306C0608113
:10282000461303C06281E61203C001968770E9CFA8
:10283000FE2CEE2009F415C1809103038160809382
:10284000030354C0561306C0491304C0E11002C06C
:10285000F80199C0C8010E94E310882361F1EE20BD
:1028600051F120910303822F82958F7090E002979F
:1028700074F08091FE029091FF0298878F831986F1
:10288000BB86AA862C87CE0107960E94631086E03D
:10289000F801AEEFB2E001900D928A95E1F70E9447
:1028A00012130E9404130AC0561711F1C8010E94A6
:1028B000E31081112CC0C8010E946310FF24F3941F
:1028C000D0C0282F207F81F77A2DB98AA88A6E2D53
:1028D00089890E94EB108EEF92E00E94631086E0DF
:1028E000F60111928A95E9F70E940413F12CB9C000
:1028F0004913DCCFE110DACFF8018583C8010E94CB
:10290000631086E0F60111928A95E9F7AAC0EE20DD
:1029100091F220910303822F82958F7090E00297AD
:102920000CF4B5CF8091FE029091FF029A838983C7
:102930001B82BD82AC822E83CE010196A6CFE83CDD
:10294000F10508F044C0FE2CEE2009F4B4CF561374
:1029500030C049132EC02091030320FD21C0822FD7
:1029600082958F70482F50E041155105C9F0F8014C
:1029700025834F30510541F08F5F982F9295907FBE
:10298000822F8F70892B8583C8010E94631086E097
:10299000F801AEEFB2E001900D928A95E1F73CC0EC
:1029A00086E0F801AEEFB2E001900D928A95E1F772
:1029B00058C0C8010E94E310811169CF80910303C0
:1029C000816080930303C8010E9463104AC07A2D7E
:1029D000B98AA88A6E2D89890E94EB1086E0F601DB
:1029E00011928A95E9F718C0EE2009F464CFC80166
:1029F0000E94E310F82E882309F45DCF86E0F801E9
:102A0000AEEFB2E001900D928A95E1F78EEF92E081
:102A10000E942C0C0E9412130E94041322C04D87A6
:102A20005E878D859E850E94B512292F22952F7075
:102A3000223028F49F7039F0811105C00BC024307A
:102A400028F49F7049F4805E883020F0C8010E940D
:102A500063109F2CF92C05C0F8019581907F99F7A0
:102A6000F9CF8F2D61960FB6F894DEBF0FBECDBFA4
:102A7000DF91CF911F910F91FF90EF90DF90CF905A
:102A8000BF90AF909F9008951F93CF93DF93CDB7E2
:102A9000DEB72C970FB6F894DEBF0FBECDBF4F83C5
:102AA000588769877A878B879C87CE0107960E9413
:102AB0007E138823D1F09F8188852A853B85232B2F
:102AC00031F08F3F31F481E09F3F19F403C081E082
:102AD00001C080E080FD47C04F81588569857A85B7
:102AE0008B859C850E94FA103EC086E0FE013796D9
:102AF000DE01119601900D928A95E1F7FF81E8853C
:102B00006A857B856115710531F0EF3F31F481E015
:102B1000FF3F19F403C081E001C080E080FD23C0C5
:102B20002091CD0230E0C90101968770992740912C
:102B3000CC0250E084179507F1F1F983EA837D8395
:102B40006C8396E0929FD001939FB00D1124A25305
:102B5000BD4FFE01319601900D929A95E1F7809359
:102B6000CD020E94E31216E08091CC029091CD023A
:102B7000891771F1189FC001112482539D4F0E9443
:102B80007E13882329F1E091CC021E9FF0011124CD
:102B9000E253FD4F4081518162817381848195812F
:102BA0000E94FA108091CC0290E0019687709927DC
:102BB0008093CC02D9CF0E94BB101092CD0210920C
:102BC000CC02EEEFF2E086E0DF011D928A95E9F794
:102BD0002C960FB6F894DEBF0FBECDBFDF91CF911C
:102BE0001F91089580910C0308950E94632B2091FA
:102BF0000A0330910B03821B930B9C0181E0283860
:102C0000334108F480E00895809109038595859506
:102C10008595089580910903877008950E94632B1C
:102C20002091060330910703821B930B8838934150
:102C300040F08091090382FB882780F991E0892781
:102C400001C080E0817008950E94632B20910403ED
:102C500030910503821B930B8838934128F081E063
:102C600090910803913009F080E08170089582E02E
:102C70008093080381E080938C020E94632B9093E1
:102C80000503809304032091060330910703232B4F
:102C900021F0909307038093060308951092080390
:102CA00010928C02109205031092040308958091F3
:102CB0000803823019F481E08093080380910803AF
:102CC000833011F40C944E160895809108038230DD
:102CD00019F483E08093080380910803813011F494
:102CE0000C944E16089590910903977081E009F4B1
:102CF00080E008959091A20392FB222720F92817E3
:102D000051F080FB92F99093A2038091A1039091DE
:102D1000A2030C94B41708958091A20382FB882724
:102D200080F991E089270C947A1681E00C947A1648
:102D300080E00C947A1680913003089590913003CE
:102D4000892B8093300308958095909130038923D7
:102D500080933003089580933003089510923003D8
:102D6000089580912F03089590912F03892B8093CC
:102D70002F030895809590912F03892380932F032B
:102D8000089510922F03089510922E0308958091B4
:102D90000D03089508950C94CA160C94CB16CF9386
:102DA0009091A20392FD11C090910D03981769F0C4
:102DB000C82F0E94632B90930B0380930A03C09348
:102DC0000D038C2FCF910C94CD16CF910895809147
:102DD0000D03882349F010920D0310920B031092FB
:102DE0000A0380E00C94CD160895E091F401F0916F
:102DF000F501809130038083E091F401F091F501B9
:102E0000908180912F03892B8083E091F401F091D0
:102E1000F501908180912E03892B808380910D0391
:102E20008823B9F00E94F51581110E94E716E09100
:102E3000F401F091F501908180910D03892B80833D
:102E40008091F4019091F5010E941B2A81110E944A
:102E5000E7168091F4019091F5010C94C7290C9428
:102E6000CA160C942F1790910C03981721F0809399
:102E70000C030C943117089580910C03882329F0DA
:102E800010920C0380E00C94311708950C94CA162C
:102E90009091A20392FD16C098E0899F90011124A1
:102EA000262B209309030E947C110E94632B909390
:102EB0000703809306038091090385958595859581
:102EC0000C9446170C947C1110920903109207037E
:102ED0001092060380E00C94461720910903809518
:102EE000822380930903982F977041F430E0482F94
:102EF000082E000C550B2417350721F49091A203DE
:102F000092FF07C08595859585950E949D110C942B
:102F1000641708956FEF7FEF80E090E00C941A3310
:102F200080E090E00E94F63221E0893E9E4F09F059
:102F300020E0822F089582E090E00C94E83283E054
:102F400090E00C94E832CF9384E090E00E94E83265
:102F5000C82F82E290E00E94E8322C2F30E0A901D5
:102F6000582BCA01CF910895CF93C92F682F84E0C1
:102F700090E00E94FC326C2F82E290E0CF910C94A2
:102F8000FC328FE090E00C94F032AB01BC018FE09A
:102F900090E00C940E33AB01BC0183E190E00C9403
:102FA0000E3360E070E0CB010C94CB1769EE7EEF3E
:102FB00080E090E00E941A3360E082E090E00E949E
:102FC000FC3260E083E090E00E94FC321092C80284
:102FD0001092C9021092CA021092CB0260E084E003
:102FE00090E00E94FC3260E082E290E00E94FC32BD
:102FF00060E085E090E00E94FC3260E086E090E0D6
:103000000E94FC326FEF87E090E00E94FC3240E0CB
:1030100050E0BA0188E090E00E940E3360E08DE05D
:1030200090E00E94FC3240E050E0BA0188E190E07C
:103030000E940E3360E087E190E00E94FC3240E0A5
:1030400050E0BA018CE190E00E940E3360E070E045
:1030500080E290E00E941A3340E050E0BA0188E13B
:1030600090E00E940E330C944F060C94D617682FF4
:103070008EE090E00C94FC320E946F2B609344032E
:1030800070934503809346039093470360934003F6
:10309000709341038093420390934303089585B74F
:1030A000806885BF85B7806885BF089581E00895F1
:1030B0000C94561808950C945A180C940D090C94FD
:1030C0005A180C945F180C945A180E944F188FE1EC
:1030D0009BE10E94E22B0E9463180C9461180E94ED
:1030E0005B180C945A180E945A2B0E94691B0E946C
:1030F00000230C945D189F92AF92BF92CF92DF9203
:10310000EF92FF920F931F93CF93DF93CDB7DEB76C
:103110002A970FB6F894DEBF0FBECDBF0E947A1B70
:1031200081110E943C1882E3A82E83E0B82E00E0B3
:1031300010E0902E802F0E945D1BD82EF501C190CB
:103140005F01C826B1F40F5F1F4F0E30110589F7DC
:103150008FEF89838A831B820E94632B8160782F83
:103160009D838C8349815A816B818D810E94B80B2C
:103170002FC08091480381FD0E94631BE12CFF2436
:10318000F3948C2D8F21F1F00E945818882399F028
:10319000EE829F82DF2081E009F480E088870E9430
:1031A000632B8160782F9A8789874E815F8168853C
:1031B0008A850E94B80BF801EE5CFC4F8081F826EE
:1031C000F08206C0E394FF0CF6E0EF12DACFBBCF3B
:1031D0000E9444230E94991E0E94B82990913103B5
:1031E0008917B9F00E94B829809331032A960FB647
:1031F000F894DEBF0FBECDBFDF91CF911F910F912D
:10320000FF90EF90DF90CF90BF90AF909F900C9485
:103210006E0B2A960FB6F894DEBF0FBECDBFDF91BE
:10322000CF911F910F91FF90EF90DF90CF90BF90C3
:10323000AF909F900895CF93DF930E94481AEC01BE
:10324000811522E5920708F04AC0811531E5930700
:1032500008F0C2C0883E910528F5803E910508F02F
:10326000FBC0883A910570F4853A910508F089C051
:103270008130910509F482C008F4EBC0049708F08E
:10328000EBC0E7C08F3B910508F0E3C0C85AD0E01F
:10329000CC0FDD1FCE5BDD4F0990D881C02DCE0154
:1032A0009464DBC0811540E2940758F4811551E025
:1032B000950708F0D1C08D3E910508F4CAC090650D
:1032C000CCC0C11580E4D80708F4C3C0C11520E5FF
:1032D000D20708F060C0DF70CE01906ABEC08115D1
:1032E00036E5930728F5811545E5940708F091C068
:1032F000811554E5950708F086C0AC014370552749
:10330000282F26952695C115D34508F06BC081E07E
:1033100090E002C0880F991F4A95E2F740E2249F8F
:1033200090011124EC01C22BD32BCE019C6895C0D7
:10333000811529E5920768F4811538E5930708F0AF
:1033400071C08115974508F084C0DD27CE019066D5
:1033500084C081155AE5950708F46AC09056811516
:10336000904208F076C08D2F8F710E94DC1ADD2705
:10337000D0628F71AE01582BCA016FC081E090E01E
:103380006CC0C55AD0E0C059DD4F8881C82FD0E04D
:10339000CE01906462C0CE0174E0969587957A95CF
:1033A000E1F7282F23703C2F337081E090E002C0BA
:1033B000880F991F3A95E2F79C68AC01522B9A014D
:1033C0009C2F9F709695969550E2959FE001112451
:1033D000C9018C2B9D2B41C0D82FCC27CE01816FEA
:1033E000906A3BC081E090E002C0880F991F4A9527
:1033F000E2F750E2259F90011124EC01C22BD32B60
:10340000CE019A682AC0D82FCC27CE01846F906A4B
:1034100024C00E94DC1A8F7190E0D82FCC27CE01F7
:1034200090621BC0D82FCC27CE01806F906A15C048
:103430008F700E94DC1A94E0D695C7959A95E1F7B3
:10344000CF70D0E0DC2FCC27D0699E01282BC9019A
:1034500004C080E090E001C0CE01DF91CF910895DB
:1034600024E5829FC0011124FC0126E0729FE00D3B
:10347000F11D1124E60FF11DEE0FFF1FED58FD4F5A
:103480008591949108950E94301A0E941B19089505
:103490008238910569F1B0F48133910509F46DC06A
:1034A00048F48932910509F463C08A32910509F420
:1034B00069C008958533910509F455C08933910594
:1034C000B9F00895833E910569F138F4803E910585
:1034D000B1F0823E910509F10895863E9105A9F16A
:1034E000873E9105B9F1843E910509F064C023C07F
:1034F0002091A10320FD4FC021FD4DC00895809172
:10350000A10380FD44C08091A20380FF44C080914C
:10351000A10384FD42C083EE4DC08091A10382FFD0
:1035200038C0F5CF8091A10382FD33C08091A20302
:1035300080FD31C0ECCF8091A20381FF32C0809129
:10354000A10384FD2AC087EE35C08091A10383FFCB
:1035500026C0F5CF8091A10383FD21C08091A203F5
:1035600081FD1FC0ECCF8091A10385FD1CC01DC053
:103570008091A10385FD19C016C08091A10386FD2D
:1035800016C017C08091A10386FD13C010C089E347
:1035900011C082EE0FC080EE0DC080E00BC086EE41
:1035A00009C084EE07C089E205C085E303C08AE252
:1035B00001C081E390E008959091A10392FF0DC0B6
:1035C000282F2871283019F4877F846006C0282F9F
:1035D0002471243011F48B7F886093FF0DC0282F55
:1035E0002871283119F4877E846106C0282F247140
:1035F000243111F48B7E88612091A20320FF0DC03D
:10360000382F3871383019F4877F816006C0382F21
:103610003171313011F48E7F886021FF0DC0282F69
:103620002871283119F4877E816106C0282F217105
:10363000213111F48E7E886194FD877E089580E0AB
:1036400008950C948A170E947A1B8FE79EE30197D6
:10365000F1F700C000000E947A1B80E00E945D1B11
:1036600080FF04C00E94211B0C94B02B08950C9481
:10367000231B0E949017811102C00E9435180E94DE
:103680009B17809348030E94A3179093A2038093F3
:10369000A1030E94371B0E949F17682F70E080E0F3
:1036A00090E00E941C116091C4027091C50280914B
:1036B000C6029091C7020C945411E82FF0E0EF5429
:1036C000FC4F80810895089508950C9417090C9477
:1036D000641B0E949A04E3EAF3E0A1EBB3E01192C9
:1036E0001D9283E0E13BF807D1F78EE00E948D1B2D
:1036F0000C94FF09CF9383EA93E00E94A504C82F9E
:10370000282F4EE061EB73E083EA93E00E948E1B6A
:103710000E94070A8C2FCF9108950895FF920F936E
:103720001F93CF93DF938C01F62ED72FC42F222324
:1037300049F081E080934B030E94632B90934A03EE
:103740008093490380914B038823C1F08091490302
:1037500090914A030E947B2B029780F0EF2DFD2F62
:10376000D8014C2F50E0CD01801B910B8417950799
:103770001CF48D918193F7CF10924B03DF91CF9181
:103780001F910F91FF9008950E94D92A0E94582DF1
:103790000E94712D0E94832D0E946F18FBCF8932E9
:1037A00079F1E0F4843161F1A0F4873009F075C05B
:1037B0001092510394E19093FB018093FA018CE302
:1037C0008093F90188E08093F70188E28093F60105
:1037D00064C092EE980F9A30F0F05FC0803509F423
:1037E00044C028F48F3409F058C08AE03FC08135C6
:1037F00029F0823509F051C081E038C08FEF36C022
:1038000080914E03882379F110924E0310924D035C
:1038100010924C0342C08D5180934E03833099F037
:1038200038F4813069F08230D9F48BEF91E00DC02B
:10383000853099F078F0863099F486EF91E005C0F4
:1038400081E593E002C08AEF91E090934D0380936D
:103850004C0323C089EF91E0F8CF87EF91E0F5CFDB
:1038600010924E031AC080E0089586EFE0914C0359
:10387000F0914D03309789F02081082E000C990BB0
:10388000820F911D8F3F910519F014F08FEF04C046
:1038900097FF02C0108201C0808381E008950F93DA
:1038A0001F9341E050E060E070E08A019B0104C09A
:1038B000000F111F221F331F8A95D2F7C901B801CB
:1038C0000E941C111F910F910C94BB10482F50E0C7
:1038D000FA013597EF33F10508F060C0E258FF4F69
:1038E0000C94D5320E94351855C080914803817FD1
:1038F0008E7F8093480381E080934F0308950E9458
:103900000C0A48C080914803982F9095917090FBC5
:1039100080F98093480391113DC0897F877F10C053
:103920008091480381FB222720F991E0922790FBA8
:1039300081F980934803992369F18091480381605C
:103940008093480327C08091480382FB222720F9F7
:1039500091E0922790FB82F9ECCF8091480383FBA2
:10396000222720F991E0922790FB83F9E2CF0E9471
:10397000BB108091A10387FB222720F991E09227B9
:1039800090FB87F98093A10305C0895301C08D5135
:103990000E944F1C81E0089580E0FACF80E00895F6
:1039A00080E008950C94D01CCF93C82F80914F03D2
:1039B000813091F040F0823009F041C08C2F0E949C
:1039C000CF1B81E042C00E949B16813149F00E94CA
:1039D0009B168232B1F504C00E949B16813149F4D6
:1039E0008C2F0E94D21C811109C08C2F0E94661C52
:1039F00024C00E949B16823221F4F2CF81E090E035
:103A00001CC08C2F0E94D01C811116C0C43189F0BB
:103A100058F4CB3089F0C031B1F482E080934F0389
:103A200088E30E94CF1B08C0C93219F0C83321F0C7
:103A30000AC010924F0307C081E0817006C0109247
:103A40004F0380E002C080E0F8CFCF9108958091CD
:103A5000580380FF0BC06091FA0185E0689FB001B8
:103A6000112475956795759567952BC081FF09C0E1
:103A70006091FA0185E0689FB00111247595679502
:103A800020C082FF07C06091FA0185E0689FB00105
:103A9000112417C0909157039923D1F06091F90137
:103AA000961788F72091FA0185E0289F900111244C
:103AB000929FA001939F500D112470E0CA010E94B3
:103AC000C1326038710540F46115710519F406C002
:103AD00065E070E0862F08958FE7089581E00895EE
:103AE0008091580380FF08C06091F70170E07595E0
:103AF00067957595679521C081FF06C06091F701B4
:103B000070E07595679519C082FF04C06091F70158
:103B100070E010C090915603992399F06091F601DE
:103B20009617A0F78091F701899FC001112470E0DA
:103B30000E94C1326038710540F46115710519F4B5
:103B400006C061E070E0862F08958FE7089581E058
:103B500008958D3E21F40E94271D819504C08E3E5C
:103B600029F40E94271D80935C0308958F3E21F461
:103B70000E94271D819504C0803F29F40E94271DC3
:103B800080935B030895893F19F40E94701D05C05E
:103B90008A3F31F40E94701D819580935D030895E2
:103BA0008B3F21F40E94701D819504C08C3F29F445
:103BB0000E94701D80935E0308959FE0980F9830D7
:103BC00078F421E030E0A90102C0440F551F9A9516
:103BD000E2F7CA0190915A03892B80935A03089502
:103BE0008D3F21F48091580381600BC08E3F21F4FA
:103BF00080915803826005C08F3F29F4809158035B
:103C000084608093580308958D3E39F490915C034D
:103C100097FF35C010925C0359C08E3E29F49091F5
:103C20005C031916BCF32BC090915B038F3E29F403
:103C300097FF25C010925B0349C0803F19F4191605
:103C4000CCF31DC090915D03893F29F41916BCF493
:103C500010925D033BC08A3F19F497FF10C0F8CF64
:103C60008B3F39F490915E0397FF09C010925E0379
:103C70002DC08C3F21F490915E031916BCF39FE098
:103C8000980F983080F421E030E0A90102C0440F81
:103C9000551F9A95E2F7CA01809590915A0389239E
:103CA00080935A0313C08D3F21F4809158038E7F77
:103CB0000BC08E3F21F4809158038D7F05C08F3F4C
:103CC00029F4809158038B7F8093580380915B0384
:103CD000811106C080915C03811102C010925703CC
:103CE00080915D03811106C080915E03811102C045
:103CF0001092560308950E94632B20915B032111BB
:103D000004C020915C03222321F0909355038093FB
:103D1000540320915D03211104C020915E032223EE
:103D200021F0909353038093520389E593E00C9420
:103D3000E129EF92FF920F931F93CF93DF9300D06F
:103D400000D000D0CDB7DEB786E0E9E5F3E0DE01D4
:103D5000119601900D928A95E1F7E0905B03F09047
:103D60005C0300915D0310915E0310925B0310925F
:103D70005C0310925D0310925E03E11003C0FF200C
:103D800009F45DC080915403909155030E947B2BF0
:103D9000AC0190915703992339F02091FB0130E059
:103DA0002417350758F04BC0209151038AE0289F13
:103DB000900111242417350718F041C09F3F19F0D6
:103DC0009F5F90935703EE2061F00E94271D1E1401
:103DD00014F09FEF01C091E0989F902D11249093D3
:103DE0005B03FF2061F00E94271D1F1414F09FEF5A
:103DF00001C091E0989F902D112490935C03309125
:103E00005B033323E1F020915C032223C1F045EBF7
:103E10003403C0011124992319F090935B0303C06C
:103E200081E080935B0335EB2303C00111249923C8
:103E300019F090935C0303C081E080935C0301114F
:103E400003C0112309F45DC0809152039091530384
:103E50000E947B2BAC0190915603992339F020915D
:103E6000F80130E02417350758F04BC0209150037B
:103E70008AE0289F900111242417350718F041C0CB
:103E80009F3F19F09F5F90935603002361F00E94BB
:103E9000701D101614F09FEF01C091E0989F902DB7
:103EA000112490935D03112361F00E94701D11167F
:103EB00014F09FEF01C091E0989F902D11249093F2
:103EC0005E0330915D033323E1F020915E032223F2
:103ED000C1F045EB3403C0011124992319F09093EC
:103EE0005D0303C081E080935D0335EB2303C001D4
:103EF0001124992319F090935E0303C081E080930D
:103F00005E0380915B0381110BC080915C03811182
:103F100007C080915D03811103C080915E03811110
:103F20000E947B1EEB82FC820D831E8386E0FE01D5
:103F30003196A9E5B3E001900D928A95E1F72696B6
:103F40000FB6F894DEBF0FBECDBFDF91CF911F91AA
:103F50000F91FF90EF900895E9E5F3E086E0DF012F
:103F60001D928A95E9F7109257031092560310920A
:103F700058030895EF92FF920F931F93CF93DF930F
:103F80008B01682F11110AC0442329F0E82FF0E0BB
:103F9000E25EFA4F6491762F862F75C0212F30E0B4
:103FA000E82FF0E0442321F0E25EFA4FE491F0E0E4
:103FB00046E0049FC0011124CFEFD0E0BE010E9473
:103FC000AD324BEA4603C001479F900D1124800F8C
:103FD000911D800F911D982F990F890FAE01421BE3
:103FE000530B4E9FD0014F9FB00D5E9FB00D11241B
:103FF0009B2F189FA0011124452F55278E01041BCC
:10400000150B0E9FA0010F9F500D1E9F500D1124E8
:104010007E01E81AF108E29E8001E39E100DF29EF7
:10402000100D1124212F3327C21BD30BCE9F9001DB
:10403000CF9F300DDE9F300D112462307105A9F045
:1040400048F46115710569F061307105C9F48B2F71
:10405000752F0DC06430710581F058F06630710520
:1040600079F47E2F8B2F932F0DC0832F7B2F9E2FC4
:1040700009C08E2F7B2F952F05C08E2F732F02C066
:104080007E2F852F692FDF91CF911F910F91FF9088
:10409000EF90089541E00E94BA1F0895FC018281CB
:1040A00020813181982F281708F4922F391708F4AE
:1040B000932F9383391B3183291B2083891B828390
:1040C000089508950E944A200895CF93DF93762F94
:1040D000E901682F842F0E946220798368838A8394
:1040E0001B82DF91CF9108958091BF03282F2695E1
:1040F00030E02115310519F48170826005C025304A
:10410000310524F0817088608093BF03089588E0B2
:1041100090E00C94F032CF92DF92EF92FF926B011D
:104120007C010E947420B701A60188E090E0FF9016
:10413000EF90DF90CF900C940E33EFEBF3E083E041
:10414000808311828FEF82838383148260817181E7
:10415000828193810C948B208091BF0380FF02C0E9
:104160008695089580E008959091C303933018F4E4
:104170009F5F9093C303882351F06091BF037091B8
:10418000C0038091C1039091C2030C948B200895C9
:1041900081E00C94B4209091C303992319F09150BD
:1041A0009093C303882351F06091BF037091C003C3
:1041B0008091C1039091C2030C948B20089581E0FB
:1041C0000C94CB20EF92FF920F931F93CF93DF932A
:1041D0000091FF018091BF0380FF0BC0C091FE01E1
:1041E00024E0C29FE0011124CC53DC4F7E0110E09B
:1041F00012C08091000290910102891778F724E0A3
:10420000829FF0011124EC53FC4F11821082128224
:1042100013828F5FF2CF101741F0C7010E944E202A
:104220001F5F84E0E80EF11CF6CF612FCE01DF9115
:10423000CF911F910F91FF90EF900C940A059091F0
:10424000BF0390FF14C090910002209101029217C9
:1042500060F434E0939FF0011124EC53FC4F818310
:104260006083428313829F5FF2CF0C94E220089513
:10427000EF92FF920F931F93CF93DF9300D000D064
:10428000CDB7DEB79091BF0390FF2CC0E22E142F64
:10429000062FF82EE92FE695F0E0ED58FD4F8081CE
:1042A000809369039E7F923059F49E012F5F3F4FA8
:1042B0008F2D0E9465204B8169818A810E941F2178
:1042C000F092C0030093C1031093C203EE2051F09B
:1042D0006091BF037091C0038091C1039091C203AC
:1042E0000E948B200F900F900F900F90DF91CF9135
:1042F0001F910F91FF90EF900895EFEBF3E0918104
:10430000282F438162818CE0890F0C94382181E051
:104310000C947D21EFEBF3E09181282F43816281A2
:1043200084EF890F0C94382181E00C948A21EFEB03
:10433000F3E062812FEF620F08F46FEF282F4381C3
:1043400081810C94382181E00C949721EFEBF3E00C
:1043500062812FEF621B08F460E0282F4381818186
:104360000C94382181E00C94A621EFEBF3E043811B
:104370002CE0420F08F44FEF282F628181810C94CA
:10438000382181E00C94B521EFEBF3E043812CE080
:10439000421B08F440E0282F628181810C9438216F
:1043A00081E00C94C42120E00C9438210F931F93DA
:1043B000CF938091000290910102891760F424E06C
:1043C000829FF0011124EC53FC4F11821082128263
:1043D00013828F5FF2CFC0E060910202C61798F59A
:1043E0000C2F10E070E0C8010E94C132E091000281
:1043F0008E0F20915F03022E000C330BE82FF0E0AC
:10440000EE0FFF1FEE0FFF1F02171307A4F080919E
:10441000FD01082E000C990B8017910764F09F0195
:104420002C533C4F4091C2036091C1038091C00363
:104430000E94652006C0EC53FC4F1182108212824C
:104440001382CF5FC9CF0E94E2202091FC018091AE
:104450005F03820F80935F039091FD01920F909311
:10446000FD0119165CF4082E000C990B4091020214
:1044700050E041505109841795071CF02195209375
:10448000FC01CF911F910F910895EFEBF3E0808134
:104490008E7F808360817181828193810E948B20D5
:1044A00010926A032FEF80E792E021508040904005
:1044B000E1F700C000000C94E220EFEBF3E0808114
:1044C0008E7F808310926A032FEF80E792E0215065
:1044D00080409040E1F700C000000C94E220109270
:1044E0006A038091670381110AC081E080936703AA
:1044F0008091BF038170809366030C945D220895C0
:104500006091BF03669570E041E050E083E092E087
:104510000E94DB32892B19F481E080936A030E94A8
:10452000632B909361038093600308959091BF0380
:1045300090FF35C09170811102C0926006C0853035
:1045400010F0986002C0880F982B9093BF036623E9
:1045500051F06091BF037091C0038091C1039091AD
:10456000C2030E948B206091BF03669570E041E01A
:1045700050E083E092E00E94DB32892B19F0109228
:104580006A0302C00E94802281E08093630340910D
:10459000C2036091C1038091C0030C94D32108959C
:1045A000682F9091BF03969581E0890F853008F0C0
:1045B00081E00C94962281E00C94D022682F909197
:1045C000BF0396958FEF890F09F484E00C9496222F
:1045D00081E00C94DE2261E00C949622EFEBF3E094
:1045E00080818160808386950C94EB228091BF034B
:1045F00080FD0C9445220C94EE2260E00C949622EF
:104600008091680381112EC00E949017811104C00F
:104610000E9435180E949D200E9487206093BF034E
:104620007093C0038093C1039093C2036E7F61F4C3
:104630000E949D200E9487206093BF037093C00357
:104640008093C1039093C2030E94742010926A0366
:104650008091BF0380FF03C086950E94FD2281E008
:10466000809368030895EFEBF3E08081816080839D
:1046700086950C94FD221092670380916603811148
:104680000E9433230C9480220F931F93CF93DF93C8
:1046900080916A03882309F440C080916903E09106
:1046A000BF03E695E81BE0936203823049F4F0E033
:1046B000E55EFA4FE491CE2FD0E006ED11E204C0A2
:1046C000C0EDD7E001E610E280916303882361F03A
:1046D000109263030E94632B9093610380936003A5
:1046E00010926503109264030E94632BE0916003B3
:1046F000F09161038E1B9F0B8F3F9F4770F4CE0F8D
:10470000DF1FD0936103C093600380E693E0F8015C
:10471000DF91CF911F910F910994DF91CF911F915C
:104720000F910895882311F0FA0101C0FB0109944B
:104730000E94AC20823030F00E94AC20843010F413
:104740000C94DB2282E00C94EB221F93CF93DF9337
:10475000FB011281112309F482C0EC010E949B1617
:104760008272CB3CFCE5DF0709F46BC048F5C63C20
:10477000ECE5DE0709F451C070F4C43C9CE5D907B0
:1047800009F43FC008F042C0C33CDC4509F06AC0F0
:104790000E94F62266C0C83C9CE5D90709F447C0D0
:1047A00008F440C0C93CFCE5DF0709F445C0CA3C39
:1047B000DC4509F057C040ED51E261EC71E22AC0DE
:1047C000C33DECE5DE0778F4CF3CFCE5DF0708F0FD
:1047D00048C0CD3C9CE5D907C9F1E8F54FED50E262
:1047E00068EC70E217C0C73DFCE5DF0730F4C43D5C
:1047F000DC45B8F50E94982334C0CE35DD4589F1FB
:1048000031C048EE52E26BED72E204C04BED52E271
:1048100068EE72E20E94922324C044E951E267E804
:1048200071E2F8CF47E851E264E971E2F3CF42EB7D
:1048300051E263EA71E2EECF43EA51E262EB71E2E8
:10484000E9CF41EC51E260ED71E2E4CF48EC50E297
:104850006FED70E2DFCF81E00E94EB2202C011E039
:1048600001C010E0812FDF91CF911F910895579AD9
:104870002BB12F773BB130684FB7F894FC01660F2E
:10488000771F660F771F6E0F7F1FE617F70789F0F8
:10489000819198E03BB9000000C087FF2BB9880FD9
:1048A000000000C000C000C02BB900C09A9591F76D
:1048B000ECCF4FBF8FE594E00197F1F700C0000007
:1048C0000895CF93DF9397FF0DC0FB012281222330
:1048D00049F0EC010E948C24CE019F770E94E324D2
:1048E0000E94C52481E0DF91CF9108958CE090E093
:1048F0000E94E83290E0A0E0B0E080930004909342
:104900000104A0930204B09303040895609100048D
:104910008CE090E00C94FC320E94C4298695817052
:104920008093050490910004913029F4882319F0B4
:1049300089E30E946E0D0E949B16809304040E94DE
:10494000AE1680910004813071F048F0823081F021
:104950008430A1F486EE0E946E0D88E10DC082EED7
:104960000E94400C0BC088E193E00E94A50906C09C
:1049700082EE0E94400C87E50E946E0D8FE39CE959
:104980000197F1F700C00000089580910004813084
:1049900039F078F0823069F0843089F488E20DC013
:1049A0008CE20E946E0D80910504882341F089E31A
:1049B00004C082EE0E94EF0C02C00E946E0D809136
:1049C00004040C94AB160F931F93CF93DF938C01C9
:1049D000CCE0D0E0C8010C2E02C0969587950A94D1
:1049E000E2F78F700E945C0B2497CC3F8FEFD807C3
:1049F00089F7DF91CF911F910F9108950F931F9326
:104A0000CF93DF93EC018B01FB018281882361F05E
:104A10000E949B16CE01825E9C458530910520F454
:104A2000809300040E948624B801CE01DF91CF91CB
:104A30001F910F910C9461240F931F93CF93DF93D9
:104A4000C42FD22FFC0182818823C9F040936D03CB
:104A50000E94632B90936C0380936B0380E28C0F16
:104A6000883008F057C0C77081E001C0880FCA9530
:104A7000EAF7DF91CF911F910F910C94770D809100
:104A80006D03481330C080916B0390916C030E94BA
:104A90007B2B883C910538F510E21D0FCD17B9F03E
:104AA00080E28C0F883040F4C77081E001C0880F2D
:104AB000CA95EAF70E947E0D183028F581E09D2FF7
:104AC000977001C0880F9A95EAF70E94770D802FA2
:104AD0000E946E0D1830F0F4D77081E001C0880F8D
:104AE000DA95EAF70AC080E28C0F883098F4C77034
:104AF00081E001C0880FCA95EAF7DF91CF911F913D
:104B00000F910C947E0D802FDF91CF911F910F910B
:104B10000C946E0DDF91CF911F910F9108950F931B
:104B20009C01CB01243F4CE5340731F188F4293D49
:104B3000FCE53F07D9F02A3D4CE5340779F1283DE3
:104B40003C45A9F506E221EE41EE68ED7CE52BC07F
:104B5000263FFCE53F07E1F0A8F0273F3C4539F54B
:104B600007E225EE46EE67EF7CE51DC007E225EE85
:104B700045EE69ED7CE517C006E221EE40EE64EFFC
:104B80007CE511C007E225EE44EE65EF7CE50BC045
:104B900006E221EE42EE66EF7CE505C008E221E088
:104BA00045EE6AED7CE50E941C2580E008C0FC0112
:104BB0008281882319F010926D0301C081E00F916A
:104BC0000895CF93DF93EC01FB018281882309F4E0
:104BD00026C1C430FDE5DF0760F4CB3F9CE5D90773
:104BE00068F49E0122503C452431310508F018C17B
:104BF00005C0C236EDE5DE0709F012C10E94A31719
:104C00009093A2038093A103C031FCE5DF0709F470
:104C1000CAC008F041C0C8309CE5D90709F4A4C057
:104C2000F0F4C430FCE5DF0709F48CC068F4C2304E
:104C30009CE5D90709F482C0C330DC4509F0E5C022
:104C40008091A1038260DFC0C630FCE5DF0709F474
:104C500083C008F085C08091A1038860D4C0CC30A7
:104C60009CE5D90709F490C068F4CA30FCE5DF0779
:104C700009F47EC008F084C00E94BB108091A1039B
:104C80008068C1C0CE309CE5D90709F481C008F026
:104C900086C08091A10394C0CD3FFCE5DF0709F4F5
:104CA0007BC038F5C4319CE5D90709F49AC058F4A3
:104CB000C231FCE5DF0709F47AC008F07EC08091BC
:104CC000A1038F7BA0C0CB3F9CE5D907F1F108F091
:104CD0003FC0C531DC4509F098C08091A10382FB3B
:104CE000222720F991E0922790FB82F990FB83F92B
:104CF0008AC0C1308DE5D80709F467C050F48091AF
:104D0000A203CF3FECE5DE07C1F108F05BC08D7F69
:104D100065C0C3308DE5D80709F471C008F46DC0D3
:104D2000C236DD4509F071C08091A10384FB2227C2
:104D300020F991E0922790FB84F965C08091A1034E
:104D4000816061C08091A10316C08091A20316C04A
:104D50008091A203826042C08091A103806153C010
:104D60008091A10380624FC08091A10380644BC0F9
:104D70008091A1038860846046C0826081602EC0FB
:104D80008091A1038E7F3FC08091A1038D7F3BC0A6
:104D90008091A103877F37C08091A20314C08091C6
:104DA000A1038F7E30C08091A1038F7D2CC00E9413
:104DB000BB108091A1038F7726C08091A103877FCC
:104DC0008B7F21C08D7F8E7F09C08091A203982F99
:104DD000909591708E7F892B90FB81F98093A2032F
:104DE00014C00E94BB108091A10387FB222720F9E9
:104DF00091E0922790FB87F906C081E001C080E036
:104E00000E94371802C08093A1038091A103909162
:104E1000A2030E94B4170E94BB1080E001C081E091
:104E2000DF91CF910895CF93DF9386319C4541F573
:104E3000EB010E949B16982F8A812091F4013091FA
:104E4000F501882379F09A7A81E009F480E0809373
:104E50006E03911102C069E201C065E3C9010E94BD
:104E6000B12A0AC080916E03811102C069E201C0BB
:104E700065E3C9010E94BC2A0E94F51680E001C0CA
:104E800081E0DF91CF910895CF93DF93EC0181E032
:104E9000898B8F810E949E1688850E94B4160E947D
:104EA000F516EA81FB81CE010696309729F06C89D0
:104EB0007D89DF91CF910994DF91CF910895CF93B0
:104EC000DF93FC012081223041F4FB01EC0182815F
:104ED00093810E94720981E08B87DF91CF910895C1
:104EE000FC018081813021F4FB018081918105C02A
:104EF000823029F4FB01828193810C947209089518
:104F0000FC018081813021F4FB018081918105C009
:104F1000823029F4FB01828193810C948B090895DE
:104F2000EF92FF920F931F93CF93DF93FC012285A3
:104F3000211136C0EC01E380F480F7E5FF1A26E189
:104F40002E9DC0012F9D900D1124DC01AE5FBE4F40
:104F50001496ED91FC911597885F9E4F309729F03C
:104F600054966D917C915597099586E18E9D8001AF
:104F70008F9D100D11240E5F1E4FF80187810E9436
:104F8000A416F80180850E94BA160E94F5161882B0
:104F900019861B861E821D821092700310926F0369
:104FA000DF91CF911F910F91FF90EF900895DF92C5
:104FB000EF92FF920F931F93CF93DF93FB01228118
:104FC0002223C1F120910402309105022F3F3F4F6F
:104FD00089F18C01C2E0D1E0E12CF12CDD24D394E5
:104FE00080910402909105028E159F051CF18E811F
:104FF0008823D9F089859A858017910739F48091A3
:105000006F03909170030817190779F0DF861C87EA
:105010000B878989811103C0CE010E944427CE01EC
:1050200006960E9490270E94C1164FEFE41AF40AD8
:105030006696D6CFDF91CF911F910F91FF90EF90A1
:10504000DF900895EF92FF920F931F93CF93DF931A
:105050009C0137552F3F310511F008F048C04091B1
:105060000402509105024217530724F430930502BD
:1050700020930402FB017C01828196E1929F8001D2
:10508000939F100D1124E801CE5FDE4F888B928133
:105090008E81992311F1FA86E9868F5F8E830E94B3
:1050A000632B9E878D870E94C7168F830E949B1655
:1050B00088870E94B1169885892B8887E881F981B5
:1050C000C801885F9E4F309719F06C897D890995DA
:1050D000F0927003E0926F030AC0882341F089893F
:1050E000882329F0C801885F9E4F0E94902781E0A5
:1050F000DF91CF911F910F91FF90EF900895CF9284
:10510000DF92EF92FF920F931F93CF93DF938091E3
:105110000402909105020196E9F1F12C96E1E92E45
:105120000F2D10E0809104029091050280179107E5
:105130008CF1E09EF001E19EF00D1124EE5FFE4F38
:10514000C288D388C114D10419F488ECC82ED12C9C
:10515000E09EE001E19ED00D1124CE5FDE4F8E81F6
:105160008823B1F08D859E850E947B2BC816D906B9
:1051700078F48989811103C0CE010E944427E09E02
:10518000C001E19E900D1124885F9E4F0E949027E0
:10519000F394C6CFDF91CF911F910F91FF90EF90C5
:1051A000DF90CF9008951092B9008CE08093B80002
:1051B00008959F92AF92BF92CF92DF92EF92FF92AB
:1051C0000F931F93CF93DF93B82EEB010E94632BB5
:1051D0006C01C431D10558F0CF3F8FEFD80759F09B
:1051E000CE0164E170E00E94AD327B0107C0EE2485
:1051F000E394F12C03C025E0E22EF12C84E8A82EE4
:1052000094EA992E1092BC009092BC000E94632BED
:105210008C018091BC0087FD08C00E94632B801B1D
:10522000910B8E159F05A8F32AC08091B900887F45
:10523000883041F08091B900887F803119F00FEFFC
:105240001FEF1FC0B092BB00A092BC000E94632B56
:105250008C018091BC0087FD08C00E94632B801BDD
:10526000910B8E159F05A8F30AC08091B900887F25
:10527000883111F0803419F700E010E00EC00EEF15
:105280001FEFCF3F8FEFD80709F4BCCFC6010E94B4
:105290007B2B8C179D0708F4B5CFC801DF91CF9108
:1052A0001F910F91FF90EF90DF90CF90BF90AF9044
:1052B0009F9008950F931F93CF93DF93EB018093FB
:1052C000BB0084E88093BC000E94632B8C0180911A
:1052D000BC0087FD0EC0CF3F8FEFD807C1F30E94FF
:1052E000632B801B910B8C179D0788F38EEF9FEF2C
:1052F0000CC02091B900287F81E090E0283211F4A1
:1053000080E090E0919581959109DF91CF911F9177
:105310000F9108950F931F93CF93DF93EC0184E8CF
:105320008093BC000E94632B8C018091BC0087FDA0
:105330000EC0CF3F8FEFD807C1F30E94632B801BB5
:10534000910B8C179D0788F38EEF9FEF03C0809120
:10535000BB0090E0DF91CF911F910F91089584E9F8
:105360008093BC000895909376038093750308950D
:10537000E0917503F0917603309721F00190F08170
:10538000E02D099480E008950E94B8290895E091E5
:105390007503F0917603309799F020911002222343
:1053A00059F02091A10327FF07C0DC012C91119631
:1053B0002C93119725E02C930280F381E02D099422
:1053C0000895E0917503F0917603309739F022E06B
:1053D000DC012C930480F581E02D0994089520913F
:1053E0007303309174032817390771F09093740395
:1053F00080937303E0917503F0917603309721F069
:105400000680F781E02D0994089520917103309171
:1054100072032817390771F0909372038093710318
:10542000E0917503F0917603309721F00084F185C7
:10543000E02D09940895FC01329680911002882392
:1054400031F08091A10387FF02C09EE101C096E088
:1054500080E0915028F021912223D9F38F5FF9CF7A
:105460000895662351F1209110022223E9F0209142
:10547000A10327FF19C0462F4695469546954E3104
:10548000E0F4677021E030E002C0220F331F6A951C
:10549000E2F7FC01E40FF11D828190E0282339231B
:1054A00081E0232B69F409C0FC0132960896219112
:1054B000621729F0E817F907D1F780E0089581E035
:1054C00008959C01FC0132969FEF80E041914617C0
:1054D00089F09F3F19F4411101C0982F8F5F8630EA
:1054E000A9F79F3F39F0F901E90FF11D97FDFA95F2
:1054F0006283089508959C012A5F3F4FFC01428119
:10550000461301C01282019682179307B9F70895D6
:10551000262F2695269526952E3168F4FC01E20F5C
:10552000F11D677021E030E001C0220F6A95EAF7B3
:105530008281282B22830895262F2695269526954D
:105540002E3170F4FC01E20FF11D677021E030E0B4
:1055500001C0220F6A95EAF72095828128232283D1
:10556000089520911002222329F02091A10327FD04
:105570000C94882A0C94612A20911002222329F08D
:105580002091A10327FD0C949C2A0C947B2A209146
:105590001002FC013296222331F08091A10387FF93
:1055A00002C08EE101C086E0DF011D928A95E9F715
:1055B0000895089508950C94DA2ACF930E94F70471
:1055C0000E947A1B0E94DB2AC0E08C2F0E945D1B88
:1055D000811104C0CF5FCE30C1F701C081E0CF910F
:1055E00008950C94DA2A0C94F12A80910E048430E8
:1055F00059F10E94F32A80E00E946E0B0E946F22F4
:105600001092770320E488E190E00FB6F894A89513
:10561000809360000FBE2093600083B7817F846019
:1056200083BF83B7816083BF7894889583B78E7F6B
:1056300083BF0FB6F894A89580916000886180932D
:105640006000109260000FBE08950C94DA2A0E9448
:10565000BB100E94B8290E946E0B0E943B230C9441
:10566000252B1F920F920FB60F9211248F939F93A9
:10567000AF93BF9380917703811113C0809106048B
:1056800090910704A0910804B09109044196A11DCE
:10569000B11D8093060490930704A0930804B0936F
:1056A0000904BF91AF919F918F910F900FBE0F9002
:1056B0001F90189582E084BD93E095BD9AEF97BD49
:1056C00080936E0008952FB7F8948091060490910E
:1056D0000704A0910804B09109042FBF08952FB7C3
:1056E000F8946091060470910704809108049091E9
:1056F00009042FBF08959C014FB7F89480910604C8
:1057000090910704A0910804B09109044FBF821B37
:10571000930B089578941F920F920FB60F92112455
:105720008F939F93AF93BF9380910604909107044A
:10573000A0910804B09109040196A11DB11D8093A8
:10574000060490930704A0930804B0930904BF9142
:10575000AF919F918F910F900FBE0F901F90189552
:10576000F89481E08093E00080E28093D800E9EC37
:10577000F0E010828FE19EE40197F1F700C0000095
:105780001DBA109268001CBC10BE1FBA10927A009D
:1057900010926E0010926F001092710010927200C1
:1057A0001082ECEBF0E0108214B817B81AB81DB8EC
:1057B00010BA108215B818B81BB81EB811BA0C94DC
:1057C000003F089590937902809378020895809124
:1057D0009B03089590910E04943031F580937803E3
:1057E00070937A036093790382E08093E9008FEFEE
:1057F0009091E800815095FD06C095ED9A95F1F7DE
:1058000000008111F5CF8091E80085FF0DC040E0D8
:1058100050E063E070E088E793E00E940F2E8091F3
:10582000E8008E778093E8000895BC0184E00C9432
:10583000EA2BBC0183E00C94EA2B22E02093E900E0
:105840002FEF3091E800215035FD06C035ED3A9537
:10585000F1F700002111F5CF2091E80025FF0BC0E2
:1058600040E050E066E070E00E940F2E8091E8007A
:105870008E778093E8000895CF93DF9320911002F4
:10588000222339F02091A10327FF03C060E222E028
:1058900002C068E021E02093E9002FEF3091E8009A
:1058A000215035FD06C035ED3A95F1F70000211184
:1058B000F5CF2091E80025FF1DC0EC01809110027A
:1058C000811105C040E050E068E070E003C070E086
:1058D00040E050E0CE010E940F2E8091E8008E77CC
:1058E0008093E80080E2FE01ABE7B3E001900D9207
:1058F0008A95E1F7DF91CF91089580910D04811190
:1059000009C00E94A02F0E94FD2F8091E2008460B8
:105910008093E200089510920D040895089508956B
:10592000089542E061EC81E00E94192F42E261ECAF
:1059300082E00C94192F80911004833009F460C028
:1059400030F4813071F0823009F499C008958A30C2
:1059500009F485C08B3009F46BC0893009F0A7C009
:1059600020C080910F04813A09F0A1C08091E80025
:10597000877F8093E8008091130490911404892B11
:1059800021F460E28BE793E003C060E080E090E008
:1059900070E00E945A2E8091E8008B778093E80097
:1059A000089580910F04813209F081C08091130421
:1059B00090911404029708F07AC08091E800877FE4
:1059C0008093E8008091E80082FD05C080910E047C
:1059D0008111F8CF6CC02091F3008091F20090E02B
:1059E000922B029729F48091F1008B7F813021F472
:1059F0008091F10080939B038091E8008B7753C0E6
:105A000080910F04813A09F052C080911304909163
:105A10001404892B09F04BC08091E800877F8093A4
:105A2000E8008091E80080FFFCCF8091100236C032
:105A300080910F048132D9F5809113049091140460
:105A4000892BA9F58091E800877F8093E8000E9468
:105A50004E2F80911104809310020C94BB10809102
:105A60000F04813221F58091E800877F8093E80060
:105A70000E944E2F8091120480939C030895809180
:105A80000F04813AA1F48091E800877F8093E800B9
:105A90008091E80080FFFCCF80919C038093F1000F
:105AA0008091E8008E778093E8000C944E2F089543
:105AB00084B7877F84BF0FB6F894A8958091600063
:105AC000886180936000109260000FBE90E080E8D3
:105AD0000FB6F89480936100909361000FBE0C9410
